{
  "_format": "hh-sol-artifact-1",
  "contractName": "SimpleSupplyChain",
  "sourceName": "contracts/SimpleSupplyChain.sol",
  "abi": [
    {
      "anonymous": false,
      "inputs": [
        {
          "indexed": false,
          "internalType": "uint256",
          "name": "id",
          "type": "uint256"
        },
        {
          "indexed": false,
          "internalType": "string",
          "name": "name",
          "type": "string"
        },
        {
          "indexed": false,
          "internalType": "address",
          "name": "manufacturer",
          "type": "address"
        },
        {
          "indexed": false,
          "internalType": "uint256",
          "name": "timestamp",
          "type": "uint256"
        }
      ],
      "name": "ProductCreated",
      "type": "event"
    },
    {
      "anonymous": false,
      "inputs": [
        {
          "indexed": false,
          "internalType": "uint256",
          "name": "id",
          "type": "uint256"
        },
        {
          "indexed": false,
          "internalType": "string",
          "name": "location",
          "type": "string"
        },
        {
          "indexed": false,
          "internalType": "address",
          "name": "handler",
          "type": "address"
        },
        {
          "indexed": false,
          "internalType": "uint256",
          "name": "timestamp",
          "type": "uint256"
        }
      ],
      "name": "ProductUpdated",
      "type": "event"
    },
    {
      "inputs": [
        {
          "internalType": "string",
          "name": "name",
          "type": "string"
        }
      ],
      "name": "createProduct",
      "outputs": [],
      "stateMutability": "nonpayable",
      "type": "function"
    },
    {
      "inputs": [
        {
          "internalType": "uint256",
          "name": "productId",
          "type": "uint256"
        }
      ],
      "name": "getProduct",
      "outputs": [
        {
          "internalType": "string",
          "name": "name",
          "type": "string"
        },
        {
          "internalType": "address",
          "name": "manufacturer",
          "type": "address"
        },
        {
          "internalType": "uint256",
          "name": "timestamp",
          "type": "uint256"
        },
        {
          "internalType": "string[]",
          "name": "locations",
          "type": "string[]"
        },
        {
          "internalType": "address[]",
          "name": "handlers",
          "type": "address[]"
        }
      ],
      "stateMutability": "view",
      "type": "function"
    },
    {
      "inputs": [
        {
          "internalType": "address",
          "name": "account",
          "type": "address"
        }
      ],
      "name": "getProductsByAccount",
      "outputs": [
        {
          "components": [
            {
              "internalType": "uint256",
              "name": "id",
              "type": "uint256"
            },
            {
              "internalType": "string",
              "name": "name",
              "type": "string"
            },
            {
              "internalType": "address",
              "name": "manufacturer",
              "type": "address"
            },
            {
              "internalType": "uint256",
              "name": "timestamp",
              "type": "uint256"
            },
            {
              "internalType": "string[]",
              "name": "locations",
              "type": "string[]"
            },
            {
              "internalType": "address[]",
              "name": "handlers",
              "type": "address[]"
            }
          ],
          "internalType": "struct SimpleSupplyChain.Product[]",
          "name": "",
          "type": "tuple[]"
        }
      ],
      "stateMutability": "view",
      "type": "function"
    },
    {
      "inputs": [],
      "name": "productCounter",
      "outputs": [
        {
          "internalType": "uint256",
          "name": "",
          "type": "uint256"
        }
      ],
      "stateMutability": "view",
      "type": "function"
    },
    {
      "inputs": [
        {
          "internalType": "uint256",
          "name": "",
          "type": "uint256"
        }
      ],
      "name": "products",
      "outputs": [
        {
          "internalType": "uint256",
          "name": "id",
          "type": "uint256"
        },
        {
          "internalType": "string",
          "name": "name",
          "type": "string"
        },
        {
          "internalType": "address",
          "name": "manufacturer",
          "type": "address"
        },
        {
          "internalType": "uint256",
          "name": "timestamp",
          "type": "uint256"
        }
      ],
      "stateMutability": "view",
      "type": "function"
    },
    {
      "inputs": [
        {
          "internalType": "uint256",
          "name": "productId",
          "type": "uint256"
        },
        {
          "internalType": "string",
          "name": "location",
          "type": "string"
        }
      ],
      "name": "updateProduct",
      "outputs": [],
      "stateMutability": "nonpayable",
      "type": "function"
    }
  ],
  "bytecode": "0x6080604052348015600f57600080fd5b506118508061001f6000396000f3fe608060405234801561001057600080fd5b50600436106100625760003560e01c806302ec06be146100675780631f16653b14610083578063522ae8b6146100a15780637acc0b20146100bd5780638cbaf19a146100f0578063b9db15b414610120575b600080fd5b610081600480360381019061007c9190610ce2565b610154565b005b61008b610230565b6040516100989190610d44565b60405180910390f35b6100bb60048036038101906100b69190610d8b565b610236565b005b6100d760048036038101906100d29190610de7565b610382565b6040516100e79493929190610ed4565b60405180910390f35b61010a60048036038101906101059190610f4c565b61045a565b60405161011791906112ab565b60405180910390f35b61013a60048036038101906101359190610de7565b610895565b60405161014b9594939291906113c2565b60405180910390f35b6001600081548092919061016790611459565b91905055506000806000600154815260200190815260200160002090506001548160000181905550818160010190816101a091906116ad565b50338160020160006101000a81548173ffffffffffffffffffffffffffffffffffffffff021916908373ffffffffffffffffffffffffffffffffffffffff1602179055504281600301819055507f90934fc9dc1095f968f4207cb62e27da1da3e31653ff34cbf837b6c349ded7606001548333426040516102249493929190610ed4565b60405180910390a15050565b60015481565b6000806000848152602001908152602001600020600001540361028e576040517f08c379a0000000000000000000000000000000000000000000000000000000008152600401610285906117cb565b60405180910390fd5b6000806000848152602001908152602001600020905080600401829080600181540180825580915050600190039060005260206000200160009091909190915090816102da91906116ad565b5080600501339080600181540180825580915050600190039060005260206000200160009091909190916101000a81548173ffffffffffffffffffffffffffffffffffffffff021916908373ffffffffffffffffffffffffffffffffffffffff1602179055507f1c151cd3e3f678fc0f6fde7e52f450b6d1dcf0ab3aa2d800b6c92615c49e276b838333426040516103759493929190610ed4565b60405180910390a1505050565b60006020528060005260406000206000915090508060000154908060010180546103ab906114d0565b80601f01602080910402602001604051908101604052809291908181526020018280546103d7906114d0565b80156104245780601f106103f957610100808354040283529160200191610424565b820191906000526020600020905b81548152906001019060200180831161040757829003601f168201915b5050505050908060020160009054906101000a900473ffffffffffffffffffffffffffffffffffffffff16908060030154905084565b6060600080600190505b60015481116104f7578373ffffffffffffffffffffffffffffffffffffffff1660008083815260200190815260200160002060020160009054906101000a900473ffffffffffffffffffffffffffffffffffffffff1673ffffffffffffffffffffffffffffffffffffffff16036104e45781806104e090611459565b9250505b80806104ef90611459565b915050610464565b5060008167ffffffffffffffff81111561051457610513610bb7565b5b60405190808252806020026020018201604052801561054d57816020015b61053a610b3c565b8152602001906001900390816105325790505b509050600080600190505b6001548111610889578573ffffffffffffffffffffffffffffffffffffffff1660008083815260200190815260200160002060020160009054906101000a900473ffffffffffffffffffffffffffffffffffffffff1673ffffffffffffffffffffffffffffffffffffffff1603610876576000808281526020019081526020016000206040518060c001604052908160008201548152602001600182018054610600906114d0565b80601f016020809104026020016040519081016040528092919081815260200182805461062c906114d0565b80156106795780601f1061064e57610100808354040283529160200191610679565b820191906000526020600020905b81548152906001019060200180831161065c57829003601f168201915b505050505081526020016002820160009054906101000a900473ffffffffffffffffffffffffffffffffffffffff1673ffffffffffffffffffffffffffffffffffffffff1673ffffffffffffffffffffffffffffffffffffffff1681526020016003820154815260200160048201805480602002602001604051908101604052809291908181526020016000905b828210156107b3578382906000526020600020018054610726906114d0565b80601f0160208091040260200160405190810160405280929190818152602001828054610752906114d0565b801561079f5780601f106107745761010080835404028352916020019161079f565b820191906000526020600020905b81548152906001019060200180831161078257829003601f168201915b505050505081526020019060010190610707565b5050505081526020016005820180548060200260200160405190810160405280929190818152602001828054801561084057602002820191906000526020600020905b8160009054906101000a900473ffffffffffffffffffffffffffffffffffffffff1673ffffffffffffffffffffffffffffffffffffffff16815260200190600101908083116107f6575b50505050508152505083838151811061085c5761085b6117eb565b5b6020026020010181905250818061087290611459565b9250505b808061088190611459565b915050610558565b50819350505050919050565b6060600080606080600080600088815260200190815260200160002060000154036108f5576040517f08c379a00000000000000000000000000000000000000000000000000000000081526004016108ec906117cb565b60405180910390fd5b60008060008881526020019081526020016000209050806001018160020160009054906101000a900473ffffffffffffffffffffffffffffffffffffffff168260030154836004018460050184805461094d906114d0565b80601f0160208091040260200160405190810160405280929190818152602001828054610979906114d0565b80156109c65780601f1061099b576101008083540402835291602001916109c6565b820191906000526020600020905b8154815290600101906020018083116109a957829003601f168201915b5050505050945081805480602002602001604051908101604052809291908181526020016000905b82821015610a9a578382906000526020600020018054610a0d906114d0565b80601f0160208091040260200160405190810160405280929190818152602001828054610a39906114d0565b8015610a865780601f10610a5b57610100808354040283529160200191610a86565b820191906000526020600020905b815481529060010190602001808311610a6957829003601f168201915b5050505050815260200190600101906109ee565b50505050915080805480602002602001604051908101604052809291908181526020018280548015610b2157602002820191906000526020600020905b8160009054906101000a900473ffffffffffffffffffffffffffffffffffffffff1673ffffffffffffffffffffffffffffffffffffffff1681526020019060010190808311610ad7575b50505050509050955095509550955095505091939590929450565b6040518060c001604052806000815260200160608152602001600073ffffffffffffffffffffffffffffffffffffffff1681526020016000815260200160608152602001606081525090565b6000604051905090565b600080fd5b600080fd5b600080fd5b600080fd5b6000601f19601f8301169050919050565b7f4e487b7100000000000000000000000000000000000000000000000000000000600052604160045260246000fd5b610bef82610ba6565b810181811067ffffffffffffffff82111715610c0e57610c0d610bb7565b5b80604052505050565b6000610c21610b88565b9050610c2d8282610be6565b919050565b600067ffffffffffffffff821115610c4d57610c4c610bb7565b5b610c5682610ba6565b9050602081019050919050565b82818337600083830152505050565b6000610c85610c8084610c32565b610c17565b905082815260208101848484011115610ca157610ca0610ba1565b5b610cac848285610c63565b509392505050565b600082601f830112610cc957610cc8610b9c565b5b8135610cd9848260208601610c72565b91505092915050565b600060208284031215610cf857610cf7610b92565b5b600082013567ffffffffffffffff811115610d1657610d15610b97565b5b610d2284828501610cb4565b91505092915050565b6000819050919050565b610d3e81610d2b565b82525050565b6000602082019050610d596000830184610d35565b92915050565b610d6881610d2b565b8114610d7357600080fd5b50565b600081359050610d8581610d5f565b92915050565b60008060408385031215610da257610da1610b92565b5b6000610db085828601610d76565b925050602083013567ffffffffffffffff811115610dd157610dd0610b97565b5b610ddd85828601610cb4565b9150509250929050565b600060208284031215610dfd57610dfc610b92565b5b6000610e0b84828501610d76565b91505092915050565b600081519050919050565b600082825260208201905092915050565b60005b83811015610e4e578082015181840152602081019050610e33565b60008484015250505050565b6000610e6582610e14565b610e6f8185610e1f565b9350610e7f818560208601610e30565b610e8881610ba6565b840191505092915050565b600073ffffffffffffffffffffffffffffffffffffffff82169050919050565b6000610ebe82610e93565b9050919050565b610ece81610eb3565b82525050565b6000608082019050610ee96000830187610d35565b8181036020830152610efb8186610e5a565b9050610f0a6040830185610ec5565b610f176060830184610d35565b95945050505050565b610f2981610eb3565b8114610f3457600080fd5b50565b600081359050610f4681610f20565b92915050565b600060208284031215610f6257610f61610b92565b5b6000610f7084828501610f37565b91505092915050565b600081519050919050565b600082825260208201905092915050565b6000819050602082019050919050565b610fae81610d2b565b82525050565b600082825260208201905092915050565b6000610fd082610e14565b610fda8185610fb4565b9350610fea818560208601610e30565b610ff381610ba6565b840191505092915050565b61100781610eb3565b82525050565b600081519050919050565b600082825260208201905092915050565b6000819050602082019050919050565b60006110458383610fc5565b905092915050565b6000602082019050919050565b60006110658261100d565b61106f8185611018565b93508360208202850161108185611029565b8060005b858110156110bd578484038952815161109e8582611039565b94506110a98361104d565b925060208a01995050600181019050611085565b50829750879550505050505092915050565b600081519050919050565b600082825260208201905092915050565b6000819050602082019050919050565b60006111078383610ffe565b60208301905092915050565b6000602082019050919050565b600061112b826110cf565b61113581856110da565b9350611140836110eb565b8060005b8381101561117157815161115888826110fb565b975061116383611113565b925050600181019050611144565b5085935050505092915050565b600060c0830160008301516111966000860182610fa5565b50602083015184820360208601526111ae8282610fc5565b91505060408301516111c36040860182610ffe565b5060608301516111d66060860182610fa5565b50608083015184820360808601526111ee828261105a565b91505060a083015184820360a08601526112088282611120565b9150508091505092915050565b6000611221838361117e565b905092915050565b6000602082019050919050565b600061124182610f79565b61124b8185610f84565b93508360208202850161125d85610f95565b8060005b85811015611299578484038952815161127a8582611215565b945061128583611229565b925060208a01995050600181019050611261565b50829750879550505050505092915050565b600060208201905081810360008301526112c58184611236565b905092915050565b600082825260208201905092915050565b60006112e98261100d565b6112f381856112cd565b93508360208202850161130585611029565b8060005b8581101561134157848403895281516113228582611039565b945061132d8361104d565b925060208a01995050600181019050611309565b50829750879550505050505092915050565b600082825260208201905092915050565b600061136f826110cf565b6113798185611353565b9350611384836110eb565b8060005b838110156113b557815161139c88826110fb565b97506113a783611113565b925050600181019050611388565b5085935050505092915050565b600060a08201905081810360008301526113dc8188610e5a565b90506113eb6020830187610ec5565b6113f86040830186610d35565b818103606083015261140a81856112de565b9050818103608083015261141e8184611364565b90509695505050505050565b7f4e487b7100000000000000000000000000000000000000000000000000000000600052601160045260246000fd5b600061146482610d2b565b91507fffffffffffffffffffffffffffffffffffffffffffffffffffffffffffffffff82036114965761149561142a565b5b600182019050919050565b7f4e487b7100000000000000000000000000000000000000000000000000000000600052602260045260246000fd5b600060028204905060018216806114e857607f821691505b6020821081036114fb576114fa6114a1565b5b50919050565b60008190508160005260206000209050919050565b60006020601f8301049050919050565b600082821b905092915050565b6000600883026115637fffffffffffffffffffffffffffffffffffffffffffffffffffffffffffffffff82611526565b61156d8683611526565b95508019841693508086168417925050509392505050565b6000819050919050565b60006115aa6115a56115a084610d2b565b611585565b610d2b565b9050919050565b6000819050919050565b6115c48361158f565b6115d86115d0826115b1565b848454611533565b825550505050565b600090565b6115ed6115e0565b6115f88184846115bb565b505050565b5b8181101561161c576116116000826115e5565b6001810190506115fe565b5050565b601f8211156116615761163281611501565b61163b84611516565b8101602085101561164a578190505b61165e61165685611516565b8301826115fd565b50505b505050565b600082821c905092915050565b600061168460001984600802611666565b1980831691505092915050565b600061169d8383611673565b9150826002028217905092915050565b6116b682610e14565b67ffffffffffffffff8111156116cf576116ce610bb7565b5b6116d982546114d0565b6116e4828285611620565b600060209050601f8311600181146117175760008415611705578287015190505b61170f8582611691565b865550611777565b601f19841661172586611501565b60005b8281101561174d57848901518255600182019150602085019450602081019050611728565b8683101561176a5784890151611766601f891682611673565b8355505b6001600288020188555050505b505050505050565b7f50726f6475637420646f6573206e6f7420657869737400000000000000000000600082015250565b60006117b5601683610e1f565b91506117c08261177f565b602082019050919050565b600060208201905081810360008301526117e4816117a8565b9050919050565b7f4e487b7100000000000000000000000000000000000000000000000000000000600052603260045260246000fdfea264697066735822122079bbc88deeb37fe9f9aa5dbe4a094938d3e373e974eb9e3db8b351d4582bf04764736f6c634300081c0033",
  "linkReferences": {},
  "deployedLinkReferences": {}
}